{
    "_format": "hh-sol-artifact-1",
    "contractName": "JavaScriptQuiz2",
    "sourceName": "contracts/JavaScriptQuiz2.sol",
    "abi": [
        {
            "inputs": [
                {
                    "internalType": "bytes32",
                    "name": "_answerHash",
                    "type": "bytes32"
                },
                {
                    "internalType": "bytes32",
                    "name": "_answerHash2",
                    "type": "bytes32"
                }
            ],
            "stateMutability": "nonpayable",
            "type": "constructor"
        },
        {
            "anonymous": false,
            "inputs": [
                {
                    "indexed": false,
                    "internalType": "address",
                    "name": "responder",
                    "type": "address"
                }
            ],
            "name": "CorrectAnswer",
            "type": "event"
        },
        {
            "anonymous": false,
            "inputs": [
                {
                    "indexed": false,
                    "internalType": "string",
                    "name": "",
                    "type": "string"
                },
                {
                    "indexed": false,
                    "internalType": "string[4]",
                    "name": "",
                    "type": "string[4]"
                }
            ],
            "name": "LogQuestion",
            "type": "event"
        },
        {
            "anonymous": false,
            "inputs": [
                {
                    "indexed": false,
                    "internalType": "address",
                    "name": "responder",
                    "type": "address"
                }
            ],
            "name": "WrongAnswer",
            "type": "event"
        },
        {
            "inputs": [
                {
                    "internalType": "string",
                    "name": "_response",
                    "type": "string"
                }
            ],
            "name": "answerQuiz",
            "outputs": [],
            "stateMutability": "nonpayable",
            "type": "function"
        },
        {
            "inputs": [
                {
                    "internalType": "string",
                    "name": "_response",
                    "type": "string"
                }
            ],
            "name": "answerQuiz2",
            "outputs": [],
            "stateMutability": "nonpayable",
            "type": "function"
        },
        {
            "inputs": [
                {
                    "internalType": "uint256",
                    "name": "",
                    "type": "uint256"
                }
            ],
            "name": "choices",
            "outputs": [
                {
                    "internalType": "string",
                    "name": "",
                    "type": "string"
                }
            ],
            "stateMutability": "view",
            "type": "function"
        },
        {
            "inputs": [],
            "name": "getAllQuestions",
            "outputs": [],
            "stateMutability": "nonpayable",
            "type": "function"
        },
        {
            "inputs": [],
            "name": "question",
            "outputs": [
                {
                    "internalType": "string",
                    "name": "",
                    "type": "string"
                }
            ],
            "stateMutability": "view",
            "type": "function"
        },
        {
            "inputs": [
                {
                    "internalType": "string",
                    "name": "_newQuestion",
                    "type": "string"
                },
                {
                    "internalType": "string[4]",
                    "name": "_newChoices",
                    "type": "string[4]"
                },
                {
                    "internalType": "string",
                    "name": "_newQuestion2",
                    "type": "string"
                },
                {
                    "internalType": "string[4]",
                    "name": "_newChoices2",
                    "type": "string[4]"
                },
                {
                    "internalType": "bytes32",
                    "name": "_newAnswerHash",
                    "type": "bytes32"
                },
                {
                    "internalType": "bytes32",
                    "name": "_newAnswerHash2",
                    "type": "bytes32"
                }
            ],
            "name": "updateQuiz",
            "outputs": [],
            "stateMutability": "nonpayable",
            "type": "function"
        }
    ],
    "bytecode": "0x608060405260405180606001604052806031815260200162001b5760319139600090816200002e919062000669565b5060405180608001604052806040518060400160405280600281526020017f323300000000000000000000000000000000000000000000000000000000000081525081526020016040518060400160405280600181526020017f350000000000000000000000000000000000000000000000000000000000000081525081526020016040518060400160405280600981526020017f756e646566696e6564000000000000000000000000000000000000000000000081525081526020016040518060400160405280600581526020017f4572726f720000000000000000000000000000000000000000000000000000008152508152506001906004620001369291906200030f565b506040518060600160405280602c815260200162001b2b602c91396005908162000161919062000669565b5060405180608001604052806040518060400160405280600181526020017f750000000000000000000000000000000000000000000000000000000000000081525081526020016040518060400160405280600181526020017f740000000000000000000000000000000000000000000000000000000000000081525081526020016040518060400160405280600181526020017f790000000000000000000000000000000000000000000000000000000000000081525081526020016040518060400160405280600181526020017f76000000000000000000000000000000000000000000000000000000000000008152508152506006906004620002699291906200030f565b503480156200027757600080fd5b5060405162001b8838038062001b8883398181016040528101906200029d919062000790565b33600c60006101000a81548173ffffffffffffffffffffffffffffffffffffffff021916908373ffffffffffffffffffffffffffffffffffffffff16021790555081600a8190555080600b819055506000600c60146101000a81548160ff0219169083151502179055505050620007d7565b82600481019282156200034f579160200282015b828111156200034e5782518290816200033d919062000669565b509160200191906001019062000323565b5b5090506200035e919062000362565b5090565b5b808211156200038657600081816200037c91906200038a565b5060010162000363565b5090565b508054620003989062000458565b6000825580601f10620003ac5750620003cd565b601f016020900490600052602060002090810190620003cc9190620003d0565b5b50565b5b80821115620003eb576000816000905550600101620003d1565b5090565b600081519050919050565b7f4e487b7100000000000000000000000000000000000000000000000000000000600052604160045260246000fd5b7f4e487b7100000000000000000000000000000000000000000000000000000000600052602260045260246000fd5b600060028204905060018216806200047157607f821691505b60208210810362000487576200048662000429565b5b50919050565b60008190508160005260206000209050919050565b60006020601f8301049050919050565b600082821b905092915050565b600060088302620004f17fffffffffffffffffffffffffffffffffffffffffffffffffffffffffffffffff82620004b2565b620004fd8683620004b2565b95508019841693508086168417925050509392505050565b6000819050919050565b6000819050919050565b60006200054a620005446200053e8462000515565b6200051f565b62000515565b9050919050565b6000819050919050565b620005668362000529565b6200057e620005758262000551565b848454620004bf565b825550505050565b600090565b6200059562000586565b620005a28184846200055b565b505050565b5b81811015620005ca57620005be6000826200058b565b600181019050620005a8565b5050565b601f8211156200061957620005e3816200048d565b620005ee84620004a2565b81016020851015620005fe578190505b620006166200060d85620004a2565b830182620005a7565b50505b505050565b600082821c905092915050565b60006200063e600019846008026200061e565b1980831691505092915050565b60006200065983836200062b565b9150826002028217905092915050565b6200067482620003ef565b67ffffffffffffffff81111562000690576200068f620003fa565b5b6200069c825462000458565b620006a9828285620005ce565b600060209050601f831160018114620006e15760008415620006cc578287015190505b620006d885826200064b565b86555062000748565b601f198416620006f1866200048d565b60005b828110156200071b57848901518255600182019150602085019450602081019050620006f4565b868310156200073b578489015162000737601f8916826200062b565b8355505b6001600288020188555050505b505050505050565b600080fd5b6000819050919050565b6200076a8162000755565b81146200077657600080fd5b50565b6000815190506200078a816200075f565b92915050565b60008060408385031215620007aa57620007a962000750565b5b6000620007ba8582860162000779565b9250506020620007cd8582860162000779565b9150509250929050565b61134480620007e76000396000f3fe608060405234801561001057600080fd5b50600436106100625760003560e01c80632af9338e146100675780633fad9ae01461007157806372777d441461008f578063b1f1ceb2146100ab578063c7ae7e71146100c7578063f6fd7fde146100e3575b600080fd5b61006f610113565b005b61007961018b565b60405161008691906107f4565b60405180910390f35b6100a960048036038101906100a4919061095f565b610219565b005b6100c560048036038101906100c0919061095f565b61036a565b005b6100e160048036038101906100dc9190610ab2565b6104ef565b005b6100fd60048036038101906100f89190610be5565b6105f4565b60405161010a91906107f4565b60405180910390f35b7f7fb491ffb6c907117c943ad92f8dc4ad2c5a342f694b161a3e9830cf48531adb60006001604051610146929190610e55565b60405180910390a17f7fb491ffb6c907117c943ad92f8dc4ad2c5a342f694b161a3e9830cf48531adb60056006604051610181929190610e55565b60405180910390a1565b6000805461019890610c41565b80601f01602080910402602001604051908101604052809291908181526020018280546101c490610c41565b80156102115780601f106101e657610100808354040283529160200191610211565b820191906000526020600020905b8154815290600101906020018083116101f457829003601f168201915b505050505081565b600c60009054906101000a900473ffffffffffffffffffffffffffffffffffffffff1673ffffffffffffffffffffffffffffffffffffffff163373ffffffffffffffffffffffffffffffffffffffff16036102a9576040517f08c379a00000000000000000000000000000000000000000000000000000000081526004016102a090610ed8565b60405180910390fd5b600a54816040516020016102bd9190610f34565b604051602081830303815290604052805190602001200361032f577f30b3ad7c3fcdaf30ac62f8d4163c218b5da0945d2241a6e33949238b5a18a202336040516103079190610f8c565b60405180910390a16001600c60146101000a81548160ff021916908315150217905550610367565b7f255f2f5b72efe7e8abd6b3cea09cdd1165231c9627767bb9242a89ac39b609b73360405161035e9190610f8c565b60405180910390a15b50565b600c60009054906101000a900473ffffffffffffffffffffffffffffffffffffffff1673ffffffffffffffffffffffffffffffffffffffff163373ffffffffffffffffffffffffffffffffffffffff16036103fa576040517f08c379a00000000000000000000000000000000000000000000000000000000081526004016103f190610ed8565b60405180910390fd5b600c60149054906101000a900460ff16610449576040517f08c379a000000000000000000000000000000000000000000000000000000000815260040161044090611019565b60405180910390fd5b600b548160405160200161045d9190610f34565b60405160208183030381529060405280519060200120036104b4577f30b3ad7c3fcdaf30ac62f8d4163c218b5da0945d2241a6e33949238b5a18a202336040516104a79190610f8c565b60405180910390a16104ec565b7f255f2f5b72efe7e8abd6b3cea09cdd1165231c9627767bb9242a89ac39b609b7336040516104e39190610f8c565b60405180910390a15b50565b600c60009054906101000a900473ffffffffffffffffffffffffffffffffffffffff1673ffffffffffffffffffffffffffffffffffffffff163373ffffffffffffffffffffffffffffffffffffffff161461057f576040517f08c379a000000000000000000000000000000000000000000000000000000000815260040161057690611085565b60405180910390fd5b856000908161058e919061123c565b508460019060046105a0929190610697565b5083600590816105b0919061123c565b508260069060046105c2929190610697565b5081600a8190555080600b819055506000600c60146101000a81548160ff021916908315150217905550505050505050565b6001816004811061060457600080fd5b01600091509050805461061690610c41565b80601f016020809104026020016040519081016040528092919081815260200182805461064290610c41565b801561068f5780601f106106645761010080835404028352916020019161068f565b820191906000526020600020905b81548152906001019060200180831161067257829003601f168201915b505050505081565b82600481019282156106d2579160200282015b828111156106d15782518290816106c1919061123c565b50916020019190600101906106aa565b5b5090506106df91906106e3565b5090565b5b8082111561070357600081816106fa9190610707565b506001016106e4565b5090565b50805461071390610c41565b6000825580601f106107255750610744565b601f0160209004906000526020600020908101906107439190610747565b5b50565b5b80821115610760576000816000905550600101610748565b5090565b600081519050919050565b600082825260208201905092915050565b60005b8381101561079e578082015181840152602081019050610783565b60008484015250505050565b6000601f19601f8301169050919050565b60006107c682610764565b6107d0818561076f565b93506107e0818560208601610780565b6107e9816107aa565b840191505092915050565b6000602082019050818103600083015261080e81846107bb565b905092915050565b6000604051905090565b600080fd5b600080fd5b600080fd5b600080fd5b7f4e487b7100000000000000000000000000000000000000000000000000000000600052604160045260246000fd5b61086c826107aa565b810181811067ffffffffffffffff8211171561088b5761088a610834565b5b80604052505050565b600061089e610816565b90506108aa8282610863565b919050565b600067ffffffffffffffff8211156108ca576108c9610834565b5b6108d3826107aa565b9050602081019050919050565b82818337600083830152505050565b60006109026108fd846108af565b610894565b90508281526020810184848401111561091e5761091d61082f565b5b6109298482856108e0565b509392505050565b600082601f8301126109465761094561082a565b5b81356109568482602086016108ef565b91505092915050565b60006020828403121561097557610974610820565b5b600082013567ffffffffffffffff81111561099357610992610825565b5b61099f84828501610931565b91505092915050565b600067ffffffffffffffff8211156109c3576109c2610834565b5b602082029050919050565b600080fd5b60006109e66109e1846109a8565b610894565b90508060208402830185811115610a00576109ff6109ce565b5b835b81811015610a4757803567ffffffffffffffff811115610a2557610a2461082a565b5b808601610a328982610931565b85526020850194505050602081019050610a02565b5050509392505050565b600082601f830112610a6657610a6561082a565b5b6004610a738482856109d3565b91505092915050565b6000819050919050565b610a8f81610a7c565b8114610a9a57600080fd5b50565b600081359050610aac81610a86565b92915050565b60008060008060008060c08789031215610acf57610ace610820565b5b600087013567ffffffffffffffff811115610aed57610aec610825565b5b610af989828a01610931565b965050602087013567ffffffffffffffff811115610b1a57610b19610825565b5b610b2689828a01610a51565b955050604087013567ffffffffffffffff811115610b4757610b46610825565b5b610b5389828a01610931565b945050606087013567ffffffffffffffff811115610b7457610b73610825565b5b610b8089828a01610a51565b9350506080610b9189828a01610a9d565b92505060a0610ba289828a01610a9d565b9150509295509295509295565b6000819050919050565b610bc281610baf565b8114610bcd57600080fd5b50565b600081359050610bdf81610bb9565b92915050565b600060208284031215610bfb57610bfa610820565b5b6000610c0984828501610bd0565b91505092915050565b7f4e487b7100000000000000000000000000000000000000000000000000000000600052602260045260246000fd5b60006002820490506001821680610c5957607f821691505b602082108103610c6c57610c6b610c12565b5b50919050565b60008190508160005260206000209050919050565b60008154610c9481610c41565b610c9e818661076f565b94506001821660008114610cb95760018114610ccf57610d02565b60ff198316865281151560200286019350610d02565b610cd885610c72565b60005b83811015610cfa57815481890152600182019150602081019050610cdb565b808801955050505b50505092915050565b600060049050919050565b600081905092915050565b6000819050919050565b600082825260208201905092915050565b60008154610d4981610c41565b610d538186610d2b565b94506001821660008114610d6e5760018114610d8457610db7565b60ff198316865281151560200286019350610db7565b610d8d85610c72565b60005b83811015610daf57815481890152600182019150602081019050610d90565b808801955050505b50505092915050565b6000610dcc8383610d3c565b905092915050565b6000600182019050919050565b6000610dec82610d0b565b610df68185610d16565b935083602082028501610e0885610d21565b8060005b85811015610e4357848403895281610e248582610dc0565b9450610e2f83610dd4565b925060208a01995050600181019050610e0c565b50829750879550505050505092915050565b60006040820190508181036000830152610e6f8185610c87565b90508181036020830152610e838184610de1565b90509392505050565b7f4f776e65722063616e6e6f7420616e7377657220746865207175697a2e000000600082015250565b6000610ec2601d8361076f565b9150610ecd82610e8c565b602082019050919050565b60006020820190508181036000830152610ef181610eb5565b9050919050565b600081905092915050565b6000610f0e82610764565b610f188185610ef8565b9350610f28818560208601610780565b80840191505092915050565b6000610f408284610f03565b915081905092915050565b600073ffffffffffffffffffffffffffffffffffffffff82169050919050565b6000610f7682610f4b565b9050919050565b610f8681610f6b565b82525050565b6000602082019050610fa16000830184610f7d565b92915050565b7f416e7377657220746865206669727374207175657374696f6e20636f7272656360008201527f746c79206265666f726520617474656d7074696e6720746865207365636f6e64602082015250565b600061100360408361076f565b915061100e82610fa7565b604082019050919050565b6000602082019050818103600083015261103281610ff6565b9050919050565b7f4f6e6c79206f776e65722063616e2075706461746520746865207175697a2e00600082015250565b600061106f601f8361076f565b915061107a82611039565b602082019050919050565b6000602082019050818103600083015261109e81611062565b9050919050565b60006020601f8301049050919050565b600082821b905092915050565b6000600883026110f27fffffffffffffffffffffffffffffffffffffffffffffffffffffffffffffffff826110b5565b6110fc86836110b5565b95508019841693508086168417925050509392505050565b6000819050919050565b600061113961113461112f84610baf565b611114565b610baf565b9050919050565b6000819050919050565b6111538361111e565b61116761115f82611140565b8484546110c2565b825550505050565b600090565b61117c61116f565b61118781848461114a565b505050565b5b818110156111ab576111a0600082611174565b60018101905061118d565b5050565b601f8211156111f0576111c181610c72565b6111ca846110a5565b810160208510156111d9578190505b6111ed6111e5856110a5565b83018261118c565b50505b505050565b600082821c905092915050565b6000611213600019846008026111f5565b1980831691505092915050565b600061122c8383611202565b9150826002028217905092915050565b61124582610764565b67ffffffffffffffff81111561125e5761125d610834565b5b6112688254610c41565b6112738282856111af565b600060209050601f8311600181146112a65760008415611294578287015190505b61129e8582611220565b865550611306565b601f1984166112b486610c72565b60005b828110156112dc578489015182556001820191506020850194506020810190506112b7565b868310156112f957848901516112f5601f891682611202565b8355505b6001600288020188555050505b50505050505056fea2646970667358221220a738d0d50394473126282e545d5f582e325b13c73d6f15f8ba0575e7898e8e7364736f6c634300081300335175656c20657374206c61206c657474726520617072657320732064616e73206c27616c706861626574203f5175656c20657374206c6520726573756c74617420646520273227202b2027332720656e204a617661536372697074203f",
    "linkReferences": {},
    "deployedLinkReferences": {}
}